{
  "_format": "hh-sol-artifact-1",
  "contractName": "WavePortal",
  "sourceName": "contracts/WavePortal.sol",
  "abi": [
    {
      "inputs": [],
      "stateMutability": "nonpayable",
      "type": "constructor"
    },
    {
      "anonymous": false,
      "inputs": [
        {
          "indexed": true,
          "internalType": "address",
          "name": "from",
          "type": "address"
        },
        {
          "indexed": false,
          "internalType": "uint256",
          "name": "timestamp",
          "type": "uint256"
        },
        {
          "indexed": false,
          "internalType": "string",
          "name": "message",
          "type": "string"
        }
      ],
      "name": "NewVote",
      "type": "event"
    },
    {
      "inputs": [],
      "name": "getAllVotes",
      "outputs": [
        {
          "components": [
            {
              "internalType": "address",
              "name": "voter",
              "type": "address"
            },
            {
              "internalType": "string",
              "name": "message",
              "type": "string"
            },
            {
              "internalType": "uint256",
              "name": "timestamp",
              "type": "uint256"
            }
          ],
          "internalType": "struct WavePortal.Vote[]",
          "name": "",
          "type": "tuple[]"
        }
      ],
      "stateMutability": "view",
      "type": "function"
    },
    {
      "inputs": [],
      "name": "getTotalVotes",
      "outputs": [
        {
          "internalType": "uint256",
          "name": "",
          "type": "uint256"
        }
      ],
      "stateMutability": "view",
      "type": "function"
    },
    {
      "inputs": [
        {
          "internalType": "string",
          "name": "_message",
          "type": "string"
        }
      ],
      "name": "voteCandidate1",
      "outputs": [],
      "stateMutability": "nonpayable",
      "type": "function"
    },
    {
      "inputs": [
        {
          "internalType": "string",
          "name": "_message",
          "type": "string"
        }
      ],
      "name": "voteCandidate2",
      "outputs": [],
      "stateMutability": "nonpayable",
      "type": "function"
    },
    {
      "inputs": [
        {
          "internalType": "string",
          "name": "_message",
          "type": "string"
        }
      ],
      "name": "voteCandidate3",
      "outputs": [],
      "stateMutability": "nonpayable",
      "type": "function"
    },
    {
      "inputs": [
        {
          "internalType": "string",
          "name": "_message",
          "type": "string"
        }
      ],
      "name": "voteNone",
      "outputs": [],
      "stateMutability": "nonpayable",
      "type": "function"
    }
  ],
  "bytecode": "0x60806040523480156200001157600080fd5b50620000416040518060600160405280602c815260200162001470602c91396200004760201b620009bd1760201c565b620001db565b620000e7816040516024016200005e919062000154565b6040516020818303038152906040527f41304fac000000000000000000000000000000000000000000000000000000007bffffffffffffffffffffffffffffffffffffffffffffffffffffffff19166020820180517bffffffffffffffffffffffffffffffffffffffffffffffffffffffff8381831617835250505050620000ea60201b60201c565b50565b60008151905060006a636f6e736f6c652e6c6f679050602083016000808483855afa5050505050565b6000620001208262000178565b6200012c818562000183565b93506200013e81856020860162000194565b6200014981620001ca565b840191505092915050565b6000602082019050818103600083015262000170818462000113565b905092915050565b600081519050919050565b600082825260208201905092915050565b60005b83811015620001b457808201518184015260208101905062000197565b83811115620001c4576000848401525b50505050565b6000601f19601f8301169050919050565b61128580620001eb6000396000f3fe608060405234801561001057600080fd5b50600436106100625760003560e01c806338dcd540146100675780633ab7174614610083578063851b6ef21461009f5780639a0e7d66146100bd578063c8d17d70146100db578063cd4b9436146100f7575b600080fd5b610081600480360381019061007c9190610cc5565b610113565b005b61009d60048036038101906100989190610cc5565b6102a4565b005b6100a7610436565b6040516100b49190610e8d565b60405180910390f35b6100c5610587565b6040516100d29190610f46565b60405180910390f35b6100f560048036038101906100f09190610cc5565b610699565b005b610111600480360381019061010c9190610cc5565b61082b565b005b60018060008282546101259190611058565b92505081905550600160008082825461013e9190611058565b925050819055506101856040518060400160405280601681526020017f257320766f74656420772f206d657373616765202573000000000000000000008152503383610a56565b600560405180606001604052803373ffffffffffffffffffffffffffffffffffffffff16815260200183815260200142815250908060018154018082558091505060019003906000526020600020906003020160009091909190915060008201518160000160006101000a81548173ffffffffffffffffffffffffffffffffffffffff021916908373ffffffffffffffffffffffffffffffffffffffff1602179055506020820151816001019080519060200190610244929190610bba565b506040820151816002015550503373ffffffffffffffffffffffffffffffffffffffff167ff3bb4a59f9a41b07650fa6eb0aaaf8f6e78fe9a712e0c0989ee060358403a89c4283604051610299929190610f61565b60405180910390a250565b6001600260008282546102b79190611058565b9250508190555060016000808282546102d09190611058565b925050819055506103176040518060400160405280601681526020017f257320766f74656420772f206d657373616765202573000000000000000000008152503383610a56565b600560405180606001604052803373ffffffffffffffffffffffffffffffffffffffff16815260200183815260200142815250908060018154018082558091505060019003906000526020600020906003020160009091909190915060008201518160000160006101000a81548173ffffffffffffffffffffffffffffffffffffffff021916908373ffffffffffffffffffffffffffffffffffffffff16021790555060208201518160010190805190602001906103d6929190610bba565b506040820151816002015550503373ffffffffffffffffffffffffffffffffffffffff167ff3bb4a59f9a41b07650fa6eb0aaaf8f6e78fe9a712e0c0989ee060358403a89c428360405161042b929190610f61565b60405180910390a250565b60606005805480602002602001604051908101604052809291908181526020016000905b8282101561057e57838290600052602060002090600302016040518060600160405290816000820160009054906101000a900473ffffffffffffffffffffffffffffffffffffffff1673ffffffffffffffffffffffffffffffffffffffff1673ffffffffffffffffffffffffffffffffffffffff1681526020016001820180546104e39061112c565b80601f016020809104026020016040519081016040528092919081815260200182805461050f9061112c565b801561055c5780601f106105315761010080835404028352916020019161055c565b820191906000526020600020905b81548152906001019060200180831161053f57829003601f168201915b505050505081526020016002820154815250508152602001906001019061045a565b50505050905090565b60006105aa6040518060600160405280602c81526020016111fd602c91396109bd565b6105eb6040518060400160405280601c81526020017f546f74616c20566f74657320666f722043616e64696461746520313a00000000815250600254610af5565b61062c6040518060400160405280601c81526020017f546f74616c20566f74657320666f722043616e64696461746520323a00000000815250600354610af5565b61066d6040518060400160405280601c81526020017f546f74616c20566f74657320666f722043616e64696461746520333a00000000815250600454610af5565b61069160405180606001604052806027815260200161122960279139600154610af5565b600054905090565b6001600460008282546106ac9190611058565b9250508190555060016000808282546106c59190611058565b9250508190555061070c6040518060400160405280601681526020017f257320766f74656420772f206d657373616765202573000000000000000000008152503383610a56565b600560405180606001604052803373ffffffffffffffffffffffffffffffffffffffff16815260200183815260200142815250908060018154018082558091505060019003906000526020600020906003020160009091909190915060008201518160000160006101000a81548173ffffffffffffffffffffffffffffffffffffffff021916908373ffffffffffffffffffffffffffffffffffffffff16021790555060208201518160010190805190602001906107cb929190610bba565b506040820151816002015550503373ffffffffffffffffffffffffffffffffffffffff167ff3bb4a59f9a41b07650fa6eb0aaaf8f6e78fe9a712e0c0989ee060358403a89c4283604051610820929190610f61565b60405180910390a250565b60016003600082825461083e9190611058565b9250508190555060016000808282546108579190611058565b9250508190555061089e6040518060400160405280601681526020017f257320766f74656420772f206d657373616765202573000000000000000000008152503383610a56565b600560405180606001604052803373ffffffffffffffffffffffffffffffffffffffff16815260200183815260200142815250908060018154018082558091505060019003906000526020600020906003020160009091909190915060008201518160000160006101000a81548173ffffffffffffffffffffffffffffffffffffffff021916908373ffffffffffffffffffffffffffffffffffffffff160217905550602082015181600101908051906020019061095d929190610bba565b506040820151816002015550503373ffffffffffffffffffffffffffffffffffffffff167ff3bb4a59f9a41b07650fa6eb0aaaf8f6e78fe9a712e0c0989ee060358403a89c42836040516109b2929190610f61565b60405180910390a250565b610a53816040516024016109d19190610eaf565b6040516020818303038152906040527f41304fac000000000000000000000000000000000000000000000000000000007bffffffffffffffffffffffffffffffffffffffffffffffffffffffff19166020820180517bffffffffffffffffffffffffffffffffffffffffffffffffffffffff8381831617835250505050610b91565b50565b610af0838383604051602401610a6e93929190610ed1565b6040516020818303038152906040527fe0e9ad4f000000000000000000000000000000000000000000000000000000007bffffffffffffffffffffffffffffffffffffffffffffffffffffffff19166020820180517bffffffffffffffffffffffffffffffffffffffffffffffffffffffff8381831617835250505050610b91565b505050565b610b8d8282604051602401610b0b929190610f16565b6040516020818303038152906040527f9710a9d0000000000000000000000000000000000000000000000000000000007bffffffffffffffffffffffffffffffffffffffffffffffffffffffff19166020820180517bffffffffffffffffffffffffffffffffffffffffffffffffffffffff8381831617835250505050610b91565b5050565b60008151905060006a636f6e736f6c652e6c6f679050602083016000808483855afa5050505050565b828054610bc69061112c565b90600052602060002090601f016020900481019282610be85760008555610c2f565b82601f10610c0157805160ff1916838001178555610c2f565b82800160010185558215610c2f579182015b82811115610c2e578251825591602001919060010190610c13565b5b509050610c3c9190610c40565b5090565b5b80821115610c59576000816000905550600101610c41565b5090565b6000610c70610c6b84610fc2565b610f91565b905082815260208101848484011115610c8857600080fd5b610c938482856110ea565b509392505050565b600082601f830112610cac57600080fd5b8135610cbc848260208601610c5d565b91505092915050565b600060208284031215610cd757600080fd5b600082013567ffffffffffffffff811115610cf157600080fd5b610cfd84828501610c9b565b91505092915050565b6000610d128383610e1f565b905092915050565b610d23816110ae565b82525050565b610d32816110ae565b82525050565b6000610d4382611002565b610d4d8185611025565b935083602082028501610d5f85610ff2565b8060005b85811015610d9b5784840389528151610d7c8582610d06565b9450610d8783611018565b925060208a01995050600181019050610d63565b50829750879550505050505092915050565b6000610db88261100d565b610dc28185611036565b9350610dd28185602086016110f9565b610ddb816111eb565b840191505092915050565b6000610df18261100d565b610dfb8185611047565b9350610e0b8185602086016110f9565b610e14816111eb565b840191505092915050565b6000606083016000830151610e376000860182610d1a565b5060208301518482036020860152610e4f8282610dad565b9150506040830151610e646040860182610e6f565b508091505092915050565b610e78816110e0565b82525050565b610e87816110e0565b82525050565b60006020820190508181036000830152610ea78184610d38565b905092915050565b60006020820190508181036000830152610ec98184610de6565b905092915050565b60006060820190508181036000830152610eeb8186610de6565b9050610efa6020830185610d29565b8181036040830152610f0c8184610de6565b9050949350505050565b60006040820190508181036000830152610f308185610de6565b9050610f3f6020830184610e7e565b9392505050565b6000602082019050610f5b6000830184610e7e565b92915050565b6000604082019050610f766000830185610e7e565b8181036020830152610f888184610de6565b90509392505050565b6000604051905081810181811067ffffffffffffffff82111715610fb857610fb76111bc565b5b8060405250919050565b600067ffffffffffffffff821115610fdd57610fdc6111bc565b5b601f19601f8301169050602081019050919050565b6000819050602082019050919050565b600081519050919050565b600081519050919050565b6000602082019050919050565b600082825260208201905092915050565b600082825260208201905092915050565b600082825260208201905092915050565b6000611063826110e0565b915061106e836110e0565b9250827fffffffffffffffffffffffffffffffffffffffffffffffffffffffffffffffff038211156110a3576110a261115e565b5b828201905092915050565b60006110b9826110c0565b9050919050565b600073ffffffffffffffffffffffffffffffffffffffff82169050919050565b6000819050919050565b82818337600083830152505050565b60005b838110156111175780820151818401526020810190506110fc565b83811115611126576000848401525b50505050565b6000600282049050600182168061114457607f821691505b602082108114156111585761115761118d565b5b50919050565b7f4e487b7100000000000000000000000000000000000000000000000000000000600052601160045260246000fd5b7f4e487b7100000000000000000000000000000000000000000000000000000000600052602260045260246000fd5b7f4e487b7100000000000000000000000000000000000000000000000000000000600052604160045260246000fd5b6000601f19601f830116905091905056fe54686520746f74616c20766f746520636f756e7473206f66207468652063616e64696461746573206172653a546f74616c20566f74657320666f72204e6f6e65206f66207468652063616e646964617465733aa26469706673582212203208325b055dd715c8a1781e2cc898b4e78ddf45e91fed0d0fb2647f04ec327f64736f6c6343000800003354686973206973206120736d61727420636f6e747261637420626173656420766f74696e672073797374656d",
  "linkReferences": {},
  "deployedLinkReferences": {}
}