{
  "_format": "hh-sol-artifact-1",
  "contractName": "WavePortal",
  "sourceName": "contracts/WavePortal.sol",
  "abi": [
    {
      "inputs": [],
      "stateMutability": "nonpayable",
      "type": "constructor"
    },
    {
      "anonymous": false,
      "inputs": [
        {
          "indexed": true,
          "internalType": "address",
          "name": "from",
          "type": "address"
        },
        {
          "indexed": false,
          "internalType": "uint256",
          "name": "timestamp",
          "type": "uint256"
        },
        {
          "indexed": false,
          "internalType": "string",
          "name": "message",
          "type": "string"
        }
      ],
      "name": "NewVote",
      "type": "event"
    },
    {
      "inputs": [],
      "name": "getAllVotes",
      "outputs": [
        {
          "components": [
            {
              "internalType": "address",
              "name": "voter",
              "type": "address"
            },
            {
              "internalType": "string",
              "name": "message",
              "type": "string"
            },
            {
              "internalType": "uint256",
              "name": "timestamp",
              "type": "uint256"
            }
          ],
          "internalType": "struct WavePortal.Vote[]",
          "name": "",
          "type": "tuple[]"
        }
      ],
      "stateMutability": "view",
      "type": "function"
    },
    {
      "inputs": [],
      "name": "getCandidate1Votes",
      "outputs": [
        {
          "internalType": "uint256",
          "name": "",
          "type": "uint256"
        }
      ],
      "stateMutability": "view",
      "type": "function"
    },
    {
      "inputs": [],
      "name": "getCandidate2Votes",
      "outputs": [
        {
          "internalType": "uint256",
          "name": "",
          "type": "uint256"
        }
      ],
      "stateMutability": "view",
      "type": "function"
    },
    {
      "inputs": [],
      "name": "getCandidate3Votes",
      "outputs": [
        {
          "internalType": "uint256",
          "name": "",
          "type": "uint256"
        }
      ],
      "stateMutability": "view",
      "type": "function"
    },
    {
      "inputs": [],
      "name": "getNoneVotes",
      "outputs": [
        {
          "internalType": "uint256",
          "name": "",
          "type": "uint256"
        }
      ],
      "stateMutability": "view",
      "type": "function"
    },
    {
      "inputs": [],
      "name": "getTotalVotes",
      "outputs": [
        {
          "internalType": "uint256",
          "name": "",
          "type": "uint256"
        }
      ],
      "stateMutability": "view",
      "type": "function"
    },
    {
      "inputs": [
        {
          "internalType": "string",
          "name": "_message",
          "type": "string"
        }
      ],
      "name": "voteCandidate1",
      "outputs": [],
      "stateMutability": "nonpayable",
      "type": "function"
    },
    {
      "inputs": [
        {
          "internalType": "string",
          "name": "_message",
          "type": "string"
        }
      ],
      "name": "voteCandidate2",
      "outputs": [],
      "stateMutability": "nonpayable",
      "type": "function"
    },
    {
      "inputs": [
        {
          "internalType": "string",
          "name": "_message",
          "type": "string"
        }
      ],
      "name": "voteCandidate3",
      "outputs": [],
      "stateMutability": "nonpayable",
      "type": "function"
    },
    {
      "inputs": [
        {
          "internalType": "string",
          "name": "_message",
          "type": "string"
        }
      ],
      "name": "voteNone",
      "outputs": [],
      "stateMutability": "nonpayable",
      "type": "function"
    }
  ],
  "bytecode": "0x60806040523480156200001157600080fd5b50620000416040518060600160405280602c81526020016200154c602c91396200004760201b62000a991760201c565b620001db565b620000e7816040516024016200005e919062000154565b6040516020818303038152906040527f41304fac000000000000000000000000000000000000000000000000000000007bffffffffffffffffffffffffffffffffffffffffffffffffffffffff19166020820180517bffffffffffffffffffffffffffffffffffffffffffffffffffffffff8381831617835250505050620000ea60201b60201c565b50565b60008151905060006a636f6e736f6c652e6c6f679050602083016000808483855afa5050505050565b6000620001208262000178565b6200012c818562000183565b93506200013e81856020860162000194565b6200014981620001ca565b840191505092915050565b6000602082019050818103600083015262000170818462000113565b905092915050565b600081519050919050565b600082825260208201905092915050565b60005b83811015620001b457808201518184015260208101905062000197565b83811115620001c4576000848401525b50505050565b6000601f19601f8301169050919050565b61136180620001eb6000396000f3fe608060405234801561001057600080fd5b506004361061009e5760003560e01c8063c8d17d7011610066578063c8d17d7014610135578063cd4b943614610151578063d2f428061461016d578063d56149421461018b578063fd2d6f53146101a95761009e565b806338dcd540146100a35780633ab71746146100bf5780636164b8fd146100db578063851b6ef2146100f95780639a0e7d6614610117575b600080fd5b6100bd60048036038101906100b89190610da1565b6101c7565b005b6100d960048036038101906100d49190610da1565b610358565b005b6100e36104ea565b6040516100f09190611022565b60405180910390f35b6101016104f4565b60405161010e9190610f69565b60405180910390f35b61011f610645565b60405161012c9190611022565b60405180910390f35b61014f600480360381019061014a9190610da1565b610757565b005b61016b60048036038101906101669190610da1565b6108e9565b005b610175610a7b565b6040516101829190611022565b60405180910390f35b610193610a85565b6040516101a09190611022565b60405180910390f35b6101b1610a8f565b6040516101be9190611022565b60405180910390f35b60018060008282546101d99190611134565b9250508190555060016000808282546101f29190611134565b925050819055506102396040518060400160405280601681526020017f257320766f74656420772f206d657373616765202573000000000000000000008152503383610b32565b600560405180606001604052803373ffffffffffffffffffffffffffffffffffffffff16815260200183815260200142815250908060018154018082558091505060019003906000526020600020906003020160009091909190915060008201518160000160006101000a81548173ffffffffffffffffffffffffffffffffffffffff021916908373ffffffffffffffffffffffffffffffffffffffff16021790555060208201518160010190805190602001906102f8929190610c96565b506040820151816002015550503373ffffffffffffffffffffffffffffffffffffffff167ff3bb4a59f9a41b07650fa6eb0aaaf8f6e78fe9a712e0c0989ee060358403a89c428360405161034d92919061103d565b60405180910390a250565b60016002600082825461036b9190611134565b9250508190555060016000808282546103849190611134565b925050819055506103cb6040518060400160405280601681526020017f257320766f74656420772f206d657373616765202573000000000000000000008152503383610b32565b600560405180606001604052803373ffffffffffffffffffffffffffffffffffffffff16815260200183815260200142815250908060018154018082558091505060019003906000526020600020906003020160009091909190915060008201518160000160006101000a81548173ffffffffffffffffffffffffffffffffffffffff021916908373ffffffffffffffffffffffffffffffffffffffff160217905550602082015181600101908051906020019061048a929190610c96565b506040820151816002015550503373ffffffffffffffffffffffffffffffffffffffff167ff3bb4a59f9a41b07650fa6eb0aaaf8f6e78fe9a712e0c0989ee060358403a89c42836040516104df92919061103d565b60405180910390a250565b6000600254905090565b60606005805480602002602001604051908101604052809291908181526020016000905b8282101561063c57838290600052602060002090600302016040518060600160405290816000820160009054906101000a900473ffffffffffffffffffffffffffffffffffffffff1673ffffffffffffffffffffffffffffffffffffffff1673ffffffffffffffffffffffffffffffffffffffff1681526020016001820180546105a190611208565b80601f01602080910402602001604051908101604052809291908181526020018280546105cd90611208565b801561061a5780601f106105ef5761010080835404028352916020019161061a565b820191906000526020600020905b8154815290600101906020018083116105fd57829003601f168201915b5050505050815260200160028201548152505081526020019060010190610518565b50505050905090565b60006106686040518060600160405280602c81526020016112d9602c9139610a99565b6106a96040518060400160405280601c81526020017f546f74616c20566f74657320666f722043616e64696461746520313a00000000815250600254610bd1565b6106ea6040518060400160405280601c81526020017f546f74616c20566f74657320666f722043616e64696461746520323a00000000815250600354610bd1565b61072b6040518060400160405280601c81526020017f546f74616c20566f74657320666f722043616e64696461746520333a00000000815250600454610bd1565b61074f60405180606001604052806027815260200161130560279139600154610bd1565b600054905090565b60016004600082825461076a9190611134565b9250508190555060016000808282546107839190611134565b925050819055506107ca6040518060400160405280601681526020017f257320766f74656420772f206d657373616765202573000000000000000000008152503383610b32565b600560405180606001604052803373ffffffffffffffffffffffffffffffffffffffff16815260200183815260200142815250908060018154018082558091505060019003906000526020600020906003020160009091909190915060008201518160000160006101000a81548173ffffffffffffffffffffffffffffffffffffffff021916908373ffffffffffffffffffffffffffffffffffffffff1602179055506020820151816001019080519060200190610889929190610c96565b506040820151816002015550503373ffffffffffffffffffffffffffffffffffffffff167ff3bb4a59f9a41b07650fa6eb0aaaf8f6e78fe9a712e0c0989ee060358403a89c42836040516108de92919061103d565b60405180910390a250565b6001600360008282546108fc9190611134565b9250508190555060016000808282546109159190611134565b9250508190555061095c6040518060400160405280601681526020017f257320766f74656420772f206d657373616765202573000000000000000000008152503383610b32565b600560405180606001604052803373ffffffffffffffffffffffffffffffffffffffff16815260200183815260200142815250908060018154018082558091505060019003906000526020600020906003020160009091909190915060008201518160000160006101000a81548173ffffffffffffffffffffffffffffffffffffffff021916908373ffffffffffffffffffffffffffffffffffffffff1602179055506020820151816001019080519060200190610a1b929190610c96565b506040820151816002015550503373ffffffffffffffffffffffffffffffffffffffff167ff3bb4a59f9a41b07650fa6eb0aaaf8f6e78fe9a712e0c0989ee060358403a89c4283604051610a7092919061103d565b60405180910390a250565b6000600354905090565b6000600154905090565b6000600454905090565b610b2f81604051602401610aad9190610f8b565b6040516020818303038152906040527f41304fac000000000000000000000000000000000000000000000000000000007bffffffffffffffffffffffffffffffffffffffffffffffffffffffff19166020820180517bffffffffffffffffffffffffffffffffffffffffffffffffffffffff8381831617835250505050610c6d565b50565b610bcc838383604051602401610b4a93929190610fad565b6040516020818303038152906040527fe0e9ad4f000000000000000000000000000000000000000000000000000000007bffffffffffffffffffffffffffffffffffffffffffffffffffffffff19166020820180517bffffffffffffffffffffffffffffffffffffffffffffffffffffffff8381831617835250505050610c6d565b505050565b610c698282604051602401610be7929190610ff2565b6040516020818303038152906040527f9710a9d0000000000000000000000000000000000000000000000000000000007bffffffffffffffffffffffffffffffffffffffffffffffffffffffff19166020820180517bffffffffffffffffffffffffffffffffffffffffffffffffffffffff8381831617835250505050610c6d565b5050565b60008151905060006a636f6e736f6c652e6c6f679050602083016000808483855afa5050505050565b828054610ca290611208565b90600052602060002090601f016020900481019282610cc45760008555610d0b565b82601f10610cdd57805160ff1916838001178555610d0b565b82800160010185558215610d0b579182015b82811115610d0a578251825591602001919060010190610cef565b5b509050610d189190610d1c565b5090565b5b80821115610d35576000816000905550600101610d1d565b5090565b6000610d4c610d478461109e565b61106d565b905082815260208101848484011115610d6457600080fd5b610d6f8482856111c6565b509392505050565b600082601f830112610d8857600080fd5b8135610d98848260208601610d39565b91505092915050565b600060208284031215610db357600080fd5b600082013567ffffffffffffffff811115610dcd57600080fd5b610dd984828501610d77565b91505092915050565b6000610dee8383610efb565b905092915050565b610dff8161118a565b82525050565b610e0e8161118a565b82525050565b6000610e1f826110de565b610e298185611101565b935083602082028501610e3b856110ce565b8060005b85811015610e775784840389528151610e588582610de2565b9450610e63836110f4565b925060208a01995050600181019050610e3f565b50829750879550505050505092915050565b6000610e94826110e9565b610e9e8185611112565b9350610eae8185602086016111d5565b610eb7816112c7565b840191505092915050565b6000610ecd826110e9565b610ed78185611123565b9350610ee78185602086016111d5565b610ef0816112c7565b840191505092915050565b6000606083016000830151610f136000860182610df6565b5060208301518482036020860152610f2b8282610e89565b9150506040830151610f406040860182610f4b565b508091505092915050565b610f54816111bc565b82525050565b610f63816111bc565b82525050565b60006020820190508181036000830152610f838184610e14565b905092915050565b60006020820190508181036000830152610fa58184610ec2565b905092915050565b60006060820190508181036000830152610fc78186610ec2565b9050610fd66020830185610e05565b8181036040830152610fe88184610ec2565b9050949350505050565b6000604082019050818103600083015261100c8185610ec2565b905061101b6020830184610f5a565b9392505050565b60006020820190506110376000830184610f5a565b92915050565b60006040820190506110526000830185610f5a565b81810360208301526110648184610ec2565b90509392505050565b6000604051905081810181811067ffffffffffffffff8211171561109457611093611298565b5b8060405250919050565b600067ffffffffffffffff8211156110b9576110b8611298565b5b601f19601f8301169050602081019050919050565b6000819050602082019050919050565b600081519050919050565b600081519050919050565b6000602082019050919050565b600082825260208201905092915050565b600082825260208201905092915050565b600082825260208201905092915050565b600061113f826111bc565b915061114a836111bc565b9250827fffffffffffffffffffffffffffffffffffffffffffffffffffffffffffffffff0382111561117f5761117e61123a565b5b828201905092915050565b60006111958261119c565b9050919050565b600073ffffffffffffffffffffffffffffffffffffffff82169050919050565b6000819050919050565b82818337600083830152505050565b60005b838110156111f35780820151818401526020810190506111d8565b83811115611202576000848401525b50505050565b6000600282049050600182168061122057607f821691505b6020821081141561123457611233611269565b5b50919050565b7f4e487b7100000000000000000000000000000000000000000000000000000000600052601160045260246000fd5b7f4e487b7100000000000000000000000000000000000000000000000000000000600052602260045260246000fd5b7f4e487b7100000000000000000000000000000000000000000000000000000000600052604160045260246000fd5b6000601f19601f830116905091905056fe54686520746f74616c20766f746520636f756e7473206f66207468652063616e64696461746573206172653a546f74616c20566f74657320666f72204e6f6e65206f66207468652063616e646964617465733aa26469706673582212201fcc47428df241712a03f9a38c0046c21bb58b0b8ddb8f7157d92504d16110e064736f6c6343000800003354686973206973206120736d61727420636f6e747261637420626173656420766f74696e672073797374656d",
  "linkReferences": {},
  "deployedLinkReferences": {}
}