{
  "_format": "hh-sol-artifact-1",
  "contractName": "WavePortal",
  "sourceName": "contracts/WavePortal.sol",
  "abi": [
    {
      "inputs": [],
      "stateMutability": "nonpayable",
      "type": "constructor"
    },
    {
      "inputs": [],
      "name": "getTotalVotes",
      "outputs": [
        {
          "internalType": "uint256",
          "name": "",
          "type": "uint256"
        }
      ],
      "stateMutability": "view",
      "type": "function"
    },
    {
      "inputs": [],
      "name": "voteCandidate1",
      "outputs": [],
      "stateMutability": "nonpayable",
      "type": "function"
    },
    {
      "inputs": [],
      "name": "voteCandidate2",
      "outputs": [],
      "stateMutability": "nonpayable",
      "type": "function"
    },
    {
      "inputs": [],
      "name": "voteCandidate3",
      "outputs": [],
      "stateMutability": "nonpayable",
      "type": "function"
    },
    {
      "inputs": [],
      "name": "voteNone",
      "outputs": [],
      "stateMutability": "nonpayable",
      "type": "function"
    }
  ],
  "bytecode": "0x608060405234801561001057600080fd5b5061003c6040518060600160405280602c81526020016107e5602c913961004160201b6102871760201c565b6101c4565b6100dd816040516024016100559190610142565b6040516020818303038152906040527f41304fac000000000000000000000000000000000000000000000000000000007bffffffffffffffffffffffffffffffffffffffffffffffffffffffff19166020820180517bffffffffffffffffffffffffffffffffffffffffffffffffffffffff83818316178352505050506100e060201b60201c565b50565b60008151905060006a636f6e736f6c652e6c6f679050602083016000808483855afa5050505050565b600061011482610164565b61011e818561016f565b935061012e818560208601610180565b610137816101b3565b840191505092915050565b6000602082019050818103600083015261015c8184610109565b905092915050565b600081519050919050565b600082825260208201905092915050565b60005b8381101561019e578082015181840152602081019050610183565b838111156101ad576000848401525b50505050565b6000601f19601f8301169050919050565b610612806101d36000396000f3fe608060405234801561001057600080fd5b50600436106100575760003560e01c806360d70aec1461005c5780639a0e7d66146100665780639d2fbdb914610084578063d99047da1461008e578063f4eb0a4d14610098575b600080fd5b6100646100a2565b005b61006e6100d7565b60405161007b919061047f565b60405180910390f35b61008c6101e9565b005b61009661021d565b005b6100a0610252565b005b6001600360008282546100b591906104b6565b9250508190555060016000808282546100ce91906104b6565b92505081905550565b60006100fa6040518060600160405280602c815260200161058a602c9139610287565b61013b6040518060400160405280601c81526020017f546f74616c20566f74657320666f722043616e64696461746520313a00000000815250600254610320565b61017c6040518060400160405280601c81526020017f546f74616c20566f74657320666f722043616e64696461746520323a00000000815250600354610320565b6101bd6040518060400160405280601c81526020017f546f74616c20566f74657320666f722043616e64696461746520333a00000000815250600454610320565b6101e16040518060600160405280602781526020016105b660279139600154610320565b600054905090565b60018060008282546101fb91906104b6565b92505081905550600160008082825461021491906104b6565b92505081905550565b60016004600082825461023091906104b6565b92505081905550600160008082825461024991906104b6565b92505081905550565b60016002600082825461026591906104b6565b92505081905550600160008082825461027e91906104b6565b92505081905550565b61031d8160405160240161029b919061042d565b6040516020818303038152906040527f41304fac000000000000000000000000000000000000000000000000000000007bffffffffffffffffffffffffffffffffffffffffffffffffffffffff19166020820180517bffffffffffffffffffffffffffffffffffffffffffffffffffffffff83818316178352505050506103bc565b50565b6103b8828260405160240161033692919061044f565b6040516020818303038152906040527f9710a9d0000000000000000000000000000000000000000000000000000000007bffffffffffffffffffffffffffffffffffffffffffffffffffffffff19166020820180517bffffffffffffffffffffffffffffffffffffffffffffffffffffffff83818316178352505050506103bc565b5050565b60008151905060006a636f6e736f6c652e6c6f679050602083016000808483855afa5050505050565b60006103f08261049a565b6103fa81856104a5565b935061040a818560208601610516565b61041381610578565b840191505092915050565b6104278161050c565b82525050565b6000602082019050818103600083015261044781846103e5565b905092915050565b6000604082019050818103600083015261046981856103e5565b9050610478602083018461041e565b9392505050565b6000602082019050610494600083018461041e565b92915050565b600081519050919050565b600082825260208201905092915050565b60006104c18261050c565b91506104cc8361050c565b9250827fffffffffffffffffffffffffffffffffffffffffffffffffffffffffffffffff0382111561050157610500610549565b5b828201905092915050565b6000819050919050565b60005b83811015610534578082015181840152602081019050610519565b83811115610543576000848401525b50505050565b7f4e487b7100000000000000000000000000000000000000000000000000000000600052601160045260246000fd5b6000601f19601f830116905091905056fe54686520746f74616c20766f746520636f756e7473206f66207468652063616e64696461746573206172653a546f74616c20566f74657320666f72204e6f6e65206f66207468652063616e646964617465733aa264697066735822122021481f6a75ca119762bab05a1212ce7d21624dcfc067818a68fdc2f7292d8b8e64736f6c6343000800003354686973206973206120736d61727420636f6e747261637420626173656420766f74696e672073797374656d",
  "linkReferences": {},
  "deployedLinkReferences": {}
}